:100000000C9434000C9451000C9451000C94510049
:100010000C9451000C9451000C9451000C9451001C
:100020000C9451000C9451000C9451000C9451000C
:100030000C9451000C9451000C9451000C945100FC
:100040000C9465010C9451000C94D5000C94510053
:100050000C9470000C948A010C9451000C94510083
:100060000C9451000C94510011241FBECFEFD8E026
:10007000DEBFCDBF11E0A0E0B1E0E6E1F9E002C0F3
:1000800005900D92A431B107D9F711E0A4E1B1E0D8
:1000900001C01D92A934B107E1F70E946F010C94D1
:1000A00089040C9400001092C50080E18093C40084
:1000B000E1ECF0E0808180698083808188648083C6
:1000C00085E091E0909346018093450186E080931E
:1000D000C200E0ECF0E08081826080837894089533
:1000E0001F920F920FB60F9211248F93EF93FF93ED
:1000F000809119018823E1F0E0911801F0E0E55EBC
:10010000FE4F80818093C6008091190181508093B9
:10011000190181E080931A01809118018F5F80930B
:10012000180180911801883029F41092180102C03A
:1001300010921A01FF91EF918F910F900FBE0F90C7
:100140001F9018951F93182F8A3019F48DE00E9484
:10015000A20080911A01882351F48091C00085FF8C
:10016000FCCF1093C60081E080931A011AC08091E1
:1001700019018730E0F7E0911701F0E0E55EFE4FEE
:100180001083809119018F5F80931901809117016D
:100190008F5F8093170180911701883011F41092BE
:1001A000170180E090E01F9108951F920F920FB603
:1001B0000F9211248F93EF93FF93E0911401F0E0DD
:1001C0008091C600ED5DFE4F8083809116018F5FA8
:1001D00080931601809114018F5F809314018091A8
:1001E0001401803211F410921401FF91EF918F915C
:1001F0000F900FBE0F901F901895809116018823C5
:10020000E1F3E0911501F0E0ED5DFE4FE0818091BA
:100210001601815080931601809115018F5F8093A4
:10022000150180911501803211F4109215018E2F65
:100230000895809116010895DF92EF92FF920F9337
:100240001F93CF93DF93082FEB01D42E7B0110E097
:1002500004C0F70181937F011F5F0E94FD0080179A
:1002600011F01D15B0F3C10FD11D0883812FDF914F
:10027000CF911F910F91FF90EF90DF900895EF9233
:10028000FF921F93CF93DF937C0110E006C00E9482
:10029000FD00CE0DDF1D88831F5F80911601C12FE9
:1002A000D0E08823A1F7CE0DDF1D1882812FDF91CA
:1002B000CF911F91FF90EF90089580911401E3E298
:1002C000F1E0E80FF11D808108951F920F920FB6A3
:1002D0000F9211240F900FBE0F901F901895259A22
:1002E00080E480937C008EEB80937A0086E080939C
:1002F0007B0021E020937E0083E08093810080E8F2
:100300009EE3909389008093880020936F000E9461
:100310005300FFCF1F920F920FB60F9211242F930D
:100320003F934F935F936F937F938F939F93AF937D
:10033000BF93EF93FF93209178003091790000D024
:1003400000D080E091E0EDB7FEB7928381833483E3
:1003500023830E94C0010F900F900F900F90FF9188
:10036000EF91BF91AF919F918F917F916F915F912D
:100370004F913F912F910F900FBE0F901F901895A6
:10038000A0E0B0E0E6ECF1E00C946204FE013596EA
:10039000619171918091450190914601AF010E9458
:1003A000D5012096E2E00C947E04ABE0B0E0EBEDEA
:1003B000F1E00C9452043C012B015A01FC0117821C
:1003C0001682838181FD03C06FEF7FEFC6C19AE083
:1003D000892E1E010894211C311CF3012381F20196
:1003E00023FD859123FF81912F01882309F4B2C158
:1003F000853239F423FD859123FF81912F018532C8
:1004000029F490E0B3010E94C803E7CF982FFF249E
:10041000EE249924FFE1FF15D0F09B3269F09C3265
:1004200028F4903259F0933291F40EC09D3249F085
:10043000903369F441E024C052E0F52A84E0F82AC0
:1004400028C098E0F92A25C0E0E1FE2A22C0F7FC86
:1004500029C0892F80538A3070F4F6FE05C0989C1D
:10046000902C1124980E15C0E89CE02C1124E80E65
:10047000F0E2FF2A0EC09E3229F4F6FC6BC140E484
:10048000F42A07C09C3619F450E8F52A02C09836C1
:1004900049F4F20123FD959123FF91912F019923B6
:1004A00009F0B8CF892F8554833018F080528330FB
:1004B00038F444E050E0A40EB51E5FE359830FC04A
:1004C000933631F0933779F0933509F056C020C058
:1004D000F5018081898342E050E0A40EB51E6101E0
:1004E00001E010E012C0F501C080D180F6FC03C02D
:1004F0006FEF7FEF02C0692D70E042E050E0A40E84
:10050000B51EC6010E94BD038C015FE7F52214C031
:10051000F501C080D180F6FC03C06FEF7FEF02C011
:10052000692D70E042E050E0A40EB51EC6010E94A5
:10053000B2038C0150E8F52AF3FE07C01AC080E22E
:1005400090E0B3010E94C803EA948E2D90E0081752
:100550001907A8F30EC0F601F7FC8591F7FE81910B
:100560006F0190E0B3010E94C803E110EA940150CA
:1005700010400115110579F7EAC0943611F099364B
:1005800069F5F7FE08C0F501208131814281538170
:1005900084E090E00AC0F501808191819C014427AC
:1005A00037FD4095542F82E090E0A80EB91E9FE6DB
:1005B000F92257FF09C050954095309521953F4F3E
:1005C0004F4F5F4FE0E8FE2ACA01B901A1012AE0BE
:1005D00030E00E94F403D82ED21840C0953729F499
:1005E0001F2D1F7E2AE030E01DC01F2D197F9F3672
:1005F00061F0903720F4983509F0ACC00FC0903707
:1006000039F0983709F0A6C004C028E030E00AC0ED
:10061000106114FD146020E130E004C014FD166088
:1006200020E132E017FF08C0F5016081718182810D
:10063000938144E050E008C0F50180819181BC01C4
:1006400080E090E042E050E0A40EB51EA1010E94BF
:10065000F403D82ED2188FE7F82EF122F6FE0BC045
:100660005EEFF522D91438F4F4FE07C0F2FC05C0A1
:100670008FEEF82202C01D2D01C0192DF4FE0DC011
:10068000FE01ED0DF11D8081803319F499EEF92200
:1006900008C01F5FF2FE05C003C08F2D867809F0E9
:1006A0001F5F0F2DF3FC14C0F0FE0FC01E1510F0DD
:1006B0009D2C0BC09D2C9E0C911A1E2D06C080E215
:1006C00090E0B3010E94C8031F5F1E15C0F304C071
:1006D0001E1510F4E11A01C0EE2404FF0FC080E3E0
:1006E00090E0B3010E94C80302FF1DC001FD03C0DA
:1006F00088E790E00EC088E590E00BC0802F8678F8
:1007000091F001FF02C08BE201C080E2F7FC8DE2B4
:1007100090E0B3010E94C80306C080E390E0B301FB
:100720000E94C8039A94D914C0F3DA94F101ED0D34
:10073000F11D808190E0B3010E94C803DD20A9F77C
:1007400006C080E290E0B3010E94C803EA94EE2064
:10075000C1F743CEF30166817781CB012B96E2E1AD
:100760000C946E04FC010590615070400110D8F7A4
:10077000809590958E0F9F1F0895FC0161507040E9
:1007800001900110D8F7809590958E0F9F1F0895C6
:100790000F931F93CF93DF938C01EB018B8181FF2C
:1007A0001BC082FF0DC02E813F818C819D81281747
:1007B000390764F4E881F9810193F983E88306C07D
:1007C000E885F985802F0995892B31F48E819F81E9
:1007D00001969F838E8302C00FEF1FEFC801DF9148
:1007E000CF911F910F910895FA01AA27283051F156
:1007F000203181F1E8946F936E7F6E5F7F4F8F4F52
:100800009F4FAF4FB1E03ED0B4E03CD0670F781FB0
:10081000891F9A1FA11D680F791F8A1F911DA11D95
:100820006A0F711D811D911DA11D20D009F46894CE
:100830003F912AE0269F11243019305D3193DEF676
:10084000CF010895462F4770405D4193B3E00FD02C
:10085000C9F7F6CF462F4F70405D4A3318F0495D17
:1008600031FD4052419302D0A9F7EACFB4E0A695FA
:100870009795879577956795BA95C9F7009761051C
:10088000710508959B01AC010A2E06945795479572
:1008900037952795BA95C9F7620F731F841F951F67
:1008A000A01D08952F923F924F925F926F927F9278
:1008B0008F929F92AF92BF92CF92DF92EF92FF9270
:1008C0000F931F93CF93DF93CDB7DEB7CA1BDB0B1C
:1008D0000FB6F894DEBF0FBECDBF09942A883988C1
:1008E00048885F846E847D848C849B84AA84B984C8
:1008F000C884DF80EE80FD800C811B81AA81B981D4
:10090000CE0FD11D0FB6F894DEBF0FBECDBFED01E7
:060910000895F894FFCFEA
:1009160025752C20000000000200000000A2000047
:0409260000000000CD
:00000001FF
